{"contracts/Token.sol":{"Token":{"abi":[{"inputs":[{"internalType":"string","name":"name_","type":"string"},{"internalType":"string","name":"symbol_","type":"string"},{"internalType":"uint256","name":"totalSupply_","type":"uint256"},{"internalType":"address[]","name":"whitelist_","type":"address[]"},{"internalType":"address","name":"creator_","type":"address"}],"stateMutability":"nonpayable","type":"constructor"},{"inputs":[],"name":"Blacklisted","type":"error"},{"inputs":[],"name":"InvalidAmount","type":"error"},{"inputs":[],"name":"NotAllowedToSell","type":"error"},{"inputs":[],"name":"NotCreator","type":"error"},{"inputs":[],"name":"ZeroAddress","type":"error"},{"anonymous":false,"inputs":[{"indexed":true,"internalType":"address","name":"account","type":"address"}],"name":"AddedToBlacklist","type":"event"},{"anonymous":false,"inputs":[{"indexed":true,"internalType":"address","name":"owner","type":"address"},{"indexed":true,"internalType":"address","name":"spender","type":"address"},{"indexed":false,"internalType":"uint256","name":"value","type":"uint256"}],"name":"Approval","type":"event"},{"anonymous":false,"inputs":[{"indexed":true,"internalType":"address","name":"previousOwner","type":"address"},{"indexed":true,"internalType":"address","name":"newOwner","type":"address"}],"name":"OwnershipTransferred","type":"event"},{"anonymous":false,"inputs":[{"indexed":true,"internalType":"address","name":"pair","type":"address"}],"name":"PairAdded","type":"event"},{"anonymous":false,"inputs":[{"indexed":true,"internalType":"address","name":"account","type":"address"}],"name":"RemovedFromBlacklist","type":"event"},{"anonymous":false,"inputs":[{"indexed":true,"internalType":"address","name":"router","type":"address"}],"name":"RouterAdded","type":"event"},{"anonymous":false,"inputs":[{"indexed":true,"internalType":"address","name":"from","type":"address"},{"indexed":true,"internalType":"address","name":"to","type":"address"},{"indexed":false,"internalType":"uint256","name":"value","type":"uint256"}],"name":"Transfer","type":"event"},{"inputs":[],"name":"DEAD_WALLET","outputs":[{"internalType":"address","name":"","type":"address"}],"stateMutability":"view","type":"function"},{"inputs":[],"name":"SELL_TAX","outputs":[{"internalType":"uint256","name":"","type":"uint256"}],"stateMutability":"view","type":"function"},{"inputs":[{"internalType":"address","name":"owner","type":"address"},{"internalType":"address","name":"spender","type":"address"}],"name":"allowance","outputs":[{"internalType":"uint256","name":"","type":"uint256"}],"stateMutability":"view","type":"function"},{"inputs":[{"internalType":"address","name":"spender","type":"address"},{"internalType":"uint256","name":"amount","type":"uint256"}],"name":"approve","outputs":[{"internalType":"bool","name":"","type":"bool"}],"stateMutability":"nonpayable","type":"function"},{"inputs":[{"internalType":"address","name":"account","type":"address"}],"name":"balanceOf","outputs":[{"internalType":"uint256","name":"","type":"uint256"}],"stateMutability":"view","type":"function"},{"inputs":[],"name":"creator","outputs":[{"internalType":"address","name":"","type":"address"}],"stateMutability":"view","type":"function"},{"inputs":[],"name":"decimals","outputs":[{"internalType":"uint8","name":"","type":"uint8"}],"stateMutability":"view","type":"function"},{"inputs":[{"internalType":"address","name":"spender","type":"address"},{"internalType":"uint256","name":"subtractedValue","type":"uint256"}],"name":"decreaseAllowance","outputs":[{"internalType":"bool","name":"","type":"bool"}],"stateMutability":"nonpayable","type":"function"},{"inputs":[{"internalType":"address","name":"spender","type":"address"},{"internalType":"uint256","name":"addedValue","type":"uint256"}],"name":"increaseAllowance","outputs":[{"internalType":"bool","name":"","type":"bool"}],"stateMutability":"nonpayable","type":"function"},{"inputs":[{"internalType":"address","name":"","type":"address"}],"name":"isBlacklisted","outputs":[{"internalType":"bool","name":"","type":"bool"}],"stateMutability":"view","type":"function"},{"inputs":[{"internalType":"address","name":"","type":"address"}],"name":"isPairOrRouter","outputs":[{"internalType":"bool","name":"","type":"bool"}],"stateMutability":"view","type":"function"},{"inputs":[],"name":"name","outputs":[{"internalType":"string","name":"","type":"string"}],"stateMutability":"view","type":"function"},{"inputs":[],"name":"owner","outputs":[{"internalType":"address","name":"","type":"address"}],"stateMutability":"view","type":"function"},{"inputs":[],"name":"renounceOwnership","outputs":[],"stateMutability":"nonpayable","type":"function"},{"inputs":[],"name":"symbol","outputs":[{"internalType":"string","name":"","type":"string"}],"stateMutability":"view","type":"function"},{"inputs":[],"name":"totalSupply","outputs":[{"internalType":"uint256","name":"","type":"uint256"}],"stateMutability":"view","type":"function"},{"inputs":[{"internalType":"address","name":"to","type":"address"},{"internalType":"uint256","name":"amount","type":"uint256"}],"name":"transfer","outputs":[{"internalType":"bool","name":"","type":"bool"}],"stateMutability":"nonpayable","type":"function"},{"inputs":[{"internalType":"address","name":"from","type":"address"},{"internalType":"address","name":"to","type":"address"},{"internalType":"uint256","name":"amount","type":"uint256"}],"name":"transferFrom","outputs":[{"internalType":"bool","name":"","type":"bool"}],"stateMutability":"nonpayable","type":"function"},{"inputs":[{"internalType":"address","name":"newOwner","type":"address"}],"name":"transferOwnership","outputs":[],"stateMutability":"nonpayable","type":"function"},{"inputs":[{"internalType":"address","name":"","type":"address"}],"name":"whitelist","outputs":[{"internalType":"bool","name":"","type":"bool"}],"stateMutability":"view","type":"function"}],"evm":{"bytecode":{"linkReferences":{},"object":"604060a08152346200054a576200144b90813803806200001f816200054f565b93843982019160a0818403126200054a5780516001600160401b0393908481116200054a57816200005291840162000575565b602091828401518681116200054a57816200006f91860162000575565b858501519160608601518881116200054a57860197601f9682888b0112156200054a578951928284116200042b5760059a848c1b908980620000b38185016200054f565b8098815201928201019283116200054a5789809101915b8383106200052f57505050506080620000e49101620005e7565b968551908282116200042b5760039182546001988982811c9216801562000524575b8b8310146200050e578a828f86869511620004b4575b5050508a908483116001146200044d5760009262000441575b505060001982851b1c191690881b1782555b84519283116200042b5760049485548881811c9116801562000420575b8a8210146200040b579081838695949311620003b0575b5089918411600114620003455760009362000339575b505082871b92600019911b1c19161782555b620001ae33620005fc565b6001600160a01b0397868916938415620003295760025481810180911162000314577fddf252ad1be2c89b69c2b068fc378daa952ba7f163c4a11628f55a4df523b3ef8887936000936002558484528382528c84208181540190558c51908152a386608052846000905b620002bd575b886200029f89898989600052600682526007856000209260ff199383858254161790553060005286600020838582541617905573d99d1c33f9fc3444f8101754abc46c52416550d160005252846000208183825416179055736725f303b657a9451d8ba641348b6761a6cc7a176000528460002091825416179055620005fc565b51610e0590816200064682396080518181816108490152610d170152f35b82518110156200030e57898782841b850101511660005260068752886000208660ff198254161790556000198114620002f95785018562000218565b601184634e487b7160e01b6000525260246000fd5b6200021e565b601185634e487b7160e01b6000525260246000fd5b885163d92e233d60e01b81528490fd5b01519150388062000191565b9190889450601f19841692876000528a6000209360005b8c8282106200039957505085116200037e575b50505050811b018255620001a3565b01519060f884600019921b161c19169055388080806200036f565b8385015187558c989096019593840193016200035c565b909192935086600052896000208d84808801821c8301938d891062000401575b918897968d93969594929601901c01915b828110620003f15750506200017b565b600081558796508b9101620003e1565b93508293620003d0565b602287634e487b7160e01b6000525260246000fd5b90607f169062000164565b634e487b7160e01b600052604160045260246000fd5b01519050388062000135565b60008681528c81208c9550929190601f198516908e5b8282106200049c575050841162000483575b505050811b01825562000147565b015160001983871b60f8161c1916905538808062000475565b8385015186558e979095019493840193018e62000463565b909192935086600052858360002092818701831c840194871062000504575b9186959493918e9301901c01915b828110620004f457508f8d92506200011c565b600081558594508c9101620004e1565b93508293620004d3565b634e487b7160e01b600052602260045260246000fd5b91607f169162000106565b81906200053c84620005e7565b8152019101908990620000ca565b600080fd5b6040519190601f01601f191682016001600160401b038111838210176200042b57604052565b919080601f840112156200054a5782516001600160401b0381116200042b57602090620005ab601f8201601f191683016200054f565b928184528282870101116200054a5760005b818110620005d357508260009394955001015290565b8581018301518482018401528201620005bd565b51906001600160a01b03821682036200054a57565b600580546001600160a01b039283166001600160a01b0319821681179092559091167f8be0079c531659141344cd1fd0a4f28419497f9722a3daafe3b4186f6b6457e0600080a356fe608060408181526004918236101561001657600080fd5b600092833560e01c91826302d05d3f146108355750816306fdde031461075b578163095ea7b31461073157816318160ddd1461071257816323b872dd14610648578163313ce5671461062c57816339509351146105c557816354ad8aee146105a8578163596df8051461056a57816370a0823114610533578163715018a6146104d65781638da5cb5b146104ad57816395d89b411461038e5781639b19251a14610350578163a01c348314610333578163a457c2d71461028b578163a9059cbb1461025a578163dd62ed3e14610211578163f2fde38b14610141575063fe575a871461010157600080fd5b3461013d57602036600319011261013d5760209160ff9082906001600160a01b0361012a6108c1565b1681526008855220541690519015158152f35b5080fd5b90503461020d57602036600319011261020d5761015c6108c1565b906101656108f2565b6001600160a01b039182169283156101bb575050600554826bffffffffffffffffffffffff60a01b821617600555167f8be0079c531659141344cd1fd0a4f28419497f9722a3daafe3b4186f6b6457e08380a380f35b906020608492519162461bcd60e51b8352820152602660248201527f4f776e61626c653a206e6577206f776e657220697320746865207a65726f206160448201526564647265737360d01b6064820152fd5b8280fd5b50503461013d578060031936011261013d578060209261022f6108c1565b6102376108dc565b6001600160a01b0391821683526001865283832091168252845220549051908152f35b50503461013d578060031936011261013d5760209061028461027a6108c1565b6024359033610a4c565b5160018152f35b905082346103305782600319360112610330576102a66108c1565b918360243592338152600160205281812060018060a01b03861682526020522054908282106102df57602085610284858503873361094a565b608490602086519162461bcd60e51b8352820152602560248201527f45524332303a2064656372656173656420616c6c6f77616e63652062656c6f77604482015264207a65726f60d81b6064820152fd5b80fd5b50503461013d578160031936011261013d576020905161dead8152f35b50503461013d57602036600319011261013d5760209160ff9082906001600160a01b0361037b6108c1565b1681526006855220541690519015158152f35b83833461013d578160031936011261013d57805190828454600181811c908083169283156104a3575b602093848410811461049057838852908115610474575060011461041f575b505050829003601f01601f191682019267ffffffffffffffff84118385101761040c5750829182610408925282610878565b0390f35b634e487b7160e01b815260418552602490fd5b8787529192508591837f8a35acfbc15ff81a39ae7d344fd709f28e8600b4aa8c65c6b64bfe7fe36bd19b5b83851061046057505050508301018580806103d6565b80548886018301529301928490820161044a565b60ff1916878501525050151560051b84010190508580806103d6565b634e487b7160e01b895260228a52602489fd5b91607f16916103b7565b50503461013d578160031936011261013d5760055490516001600160a01b039091168152602090f35b83346103305780600319360112610330576104ef6108f2565b600580546001600160a01b0319811690915581906001600160a01b03167f8be0079c531659141344cd1fd0a4f28419497f9722a3daafe3b4186f6b6457e08280a380f35b50503461013d57602036600319011261013d5760209181906001600160a01b0361055b6108c1565b16815280845220549051908152f35b50503461013d57602036600319011261013d5760209160ff9082906001600160a01b036105956108c1565b1681526007855220541690519015158152f35b50503461013d578160031936011261013d57602090516103e88152f35b8284346103305781600319360112610330576105df6108c1565b338252600160209081528383206001600160a01b03831684529052828220546024358101929083106106195760208461028485853361094a565b634e487b7160e01b815260118552602490fd5b50503461013d578160031936011261013d576020905160128152f35b8391503461013d57606036600319011261013d576106646108c1565b61066c6108dc565b91846044359460018060a01b0384168152600160205281812033825260205220549060001982036106a6575b602086610284878787610a4c565b8482106106cf57509183916106c4602096956102849503338361094a565b919394819350610698565b606490602087519162461bcd60e51b8352820152601d60248201527f45524332303a20696e73756666696369656e7420616c6c6f77616e63650000006044820152fd5b50503461013d578160031936011261013d576020906002549051908152f35b50503461013d578060031936011261013d576020906102846107516108c1565b602435903361094a565b83833461013d578160031936011261013d5780519082600354600181811c9080831692831561082b575b60209384841081146104905783885290811561047457506001146107d557505050829003601f01601f191682019267ffffffffffffffff84118385101761040c5750829182610408925282610878565b600387529192508591837fc2575a0e9e593c00f959f8c92f12db2869c3395a3b0502d05e2516446f71f85b5b83851061081757505050508301018580806103d6565b805488860183015293019284908201610801565b91607f1691610785565b84903461013d578160031936011261013d577f00000000000000000000000000000000000000000000000000000000000000006001600160a01b03168152602090f35b6020808252825181830181905290939260005b8281106108ad57505060409293506000838284010152601f8019910116010190565b81810186015184820160400152850161088b565b600435906001600160a01b03821682036108d757565b600080fd5b602435906001600160a01b03821682036108d757565b6005546001600160a01b0316330361090657565b606460405162461bcd60e51b815260206004820152602060248201527f4f776e61626c653a2063616c6c6572206973206e6f7420746865206f776e65726044820152fd5b6001600160a01b039081169182156109fb57169182156109ab5760207f8c5be1e5ebec7d5bd14f71427d1e84f3dd0314c0f7b2291e5b200ac8c7c3b925918360005260018252604060002085600052825280604060002055604051908152a3565b60405162461bcd60e51b815260206004820152602260248201527f45524332303a20617070726f766520746f20746865207a65726f206164647265604482015261737360f01b6064820152608490fd5b60405162461bcd60e51b8152602060048201526024808201527f45524332303a20617070726f76652066726f6d20746865207a65726f206164646044820152637265737360e01b6064820152608490fd5b6001600160a01b03929083169182159190828015610dc5575b610db3578115610da15760008481526020936008855260409260ff84842054168015610d8f575b610d7e57878116978884526007875260ff8585205416918215610d56575b5081610d40575b81610d13575b50610c1057610bbe578515610b6e5784815280845281812054838110610b1b579181847fddf252ad1be2c89b69c2b068fc378daa952ba7f163c4a11628f55a4df523b3ef9695948884955282875203828220558781522082815401905551908152a3565b825162461bcd60e51b815260048101869052602660248201527f45524332303a207472616e7366657220616d6f756e7420657863656564732062604482015265616c616e636560d01b6064820152608490fd5b815162461bcd60e51b815260048101859052602360248201527f45524332303a207472616e7366657220746f20746865207a65726f206164647260448201526265737360e81b6064820152608490fd5b815162461bcd60e51b815260048101859052602560248201527f45524332303a207472616e736665722066726f6d20746865207a65726f206164604482015264647265737360d81b6064820152608490fd5b909550610cc25783855284835280852054828110610c6f5790827fddf252ad1be2c89b69c2b068fc378daa952ba7f163c4a11628f55a4df523b3ef94939286885287855203818720558061dead968781522082815401905551908152a3565b815162461bcd60e51b815260048101859052602660248201527f45524332303a207472616e7366657220616d6f756e7420657863656564732062604482015265616c616e636560d01b6064820152608490fd5b5162461bcd60e51b815260048101839052602560248201527f45524332303a207472616e736665722066726f6d20746865207a65726f206164604482015264647265737360d81b6064820152608490fd5b90507f00000000000000000000000000000000000000000000000000000000000000001686141538610ab7565b878452600687528484205460ff16159150610ab1565b90915087845260ff8585205416159081610d73575b509038610aaa565b90503b151538610d6b565b83516309550c7760e01b8152600490fd5b50878116835260ff8484205416610a8c565b60405163162908e360e11b8152600490fd5b60405163d92e233d60e01b8152600490fd5b5084811615610a6556fea26469706673582212206abaf380e0bb704d4a51c14da9f4dc280d0f2eb6a7beba82443de9d40daeccf564736f6c63430008130033","opcodes":"PUSH1 0x40 PUSH1 0xA0 DUP2 MSTORE CALLVALUE PUSH3 0x54A JUMPI PUSH3 0x144B SWAP1 DUP2 CODESIZE SUB DUP1 PUSH3 0x1F DUP2 PUSH3 0x54F JUMP JUMPDEST SWAP4 DUP5 CODECOPY DUP3 ADD SWAP2 PUSH1 0xA0 DUP2 DUP5 SUB SLT PUSH3 0x54A JUMPI DUP1 MLOAD PUSH1 0x1 PUSH1 0x1 PUSH1 0x40 SHL SUB SWAP4 SWAP1 DUP5 DUP2 GT PUSH3 0x54A JUMPI DUP2 PUSH3 0x52 SWAP2 DUP5 ADD PUSH3 0x575 JUMP JUMPDEST PUSH1 0x20 SWAP2 DUP3 DUP5 ADD MLOAD DUP7 DUP2 GT PUSH3 0x54A JUMPI DUP2 PUSH3 0x6F SWAP2 DUP7 ADD PUSH3 0x575 JUMP JUMPDEST DUP6 DUP6 ADD MLOAD SWAP2 PUSH1 0x60 DUP7 ADD MLOAD DUP9 DUP2 GT PUSH3 0x54A JUMPI DUP7 ADD SWAP8 PUSH1 0x1F SWAP7 DUP3 DUP9 DUP12 ADD SLT ISZERO PUSH3 0x54A JUMPI DUP10 MLOAD SWAP3 DUP3 DUP5 GT PUSH3 0x42B JUMPI PUSH1 0x5 SWAP11 DUP5 DUP13 SHL SWAP1 DUP10 DUP1 PUSH3 0xB3 DUP2 DUP6 ADD PUSH3 0x54F JUMP JUMPDEST DUP1 SWAP9 DUP2 MSTORE ADD SWAP3 DUP3 ADD ADD SWAP3 DUP4 GT PUSH3 0x54A JUMPI DUP10 DUP1 SWAP2 ADD SWAP2 JUMPDEST DUP4 DUP4 LT PUSH3 0x52F JUMPI POP POP POP POP PUSH1 0x80 PUSH3 0xE4 SWAP2 ADD PUSH3 0x5E7 JUMP JUMPDEST SWAP7 DUP6 MLOAD SWAP1 DUP3 DUP3 GT PUSH3 0x42B JUMPI PUSH1 0x3 SWAP2 DUP3 SLOAD PUSH1 0x1 SWAP9 DUP10 DUP3 DUP2 SHR SWAP3 AND DUP1 ISZERO PUSH3 0x524 JUMPI JUMPDEST DUP12 DUP4 LT EQ PUSH3 0x50E JUMPI DUP11 DUP3 DUP16 DUP7 DUP7 SWAP6 GT PUSH3 0x4B4 JUMPI JUMPDEST POP POP POP DUP11 SWAP1 DUP5 DUP4 GT PUSH1 0x1 EQ PUSH3 0x44D JUMPI PUSH1 0x0 SWAP3 PUSH3 0x441 JUMPI JUMPDEST POP POP PUSH1 0x0 NOT DUP3 DUP6 SHL SHR NOT AND SWAP1 DUP9 SHL OR DUP3 SSTORE JUMPDEST DUP5 MLOAD SWAP3 DUP4 GT PUSH3 0x42B JUMPI PUSH1 0x4 SWAP5 DUP6 SLOAD DUP9 DUP2 DUP2 SHR SWAP2 AND DUP1 ISZERO PUSH3 0x420 JUMPI JUMPDEST DUP11 DUP3 LT EQ PUSH3 0x40B JUMPI SWAP1 DUP2 DUP4 DUP7 SWAP6 SWAP5 SWAP4 GT PUSH3 0x3B0 JUMPI JUMPDEST POP DUP10 SWAP2 DUP5 GT PUSH1 0x1 EQ PUSH3 0x345 JUMPI PUSH1 0x0 SWAP4 PUSH3 0x339 JUMPI JUMPDEST POP POP DUP3 DUP8 SHL SWAP3 PUSH1 0x0 NOT SWAP2 SHL SHR NOT AND OR DUP3 SSTORE JUMPDEST PUSH3 0x1AE CALLER PUSH3 0x5FC JUMP JUMPDEST PUSH1 0x1 PUSH1 0x1 PUSH1 0xA0 SHL SUB SWAP8 DUP7 DUP10 AND SWAP4 DUP5 ISZERO PUSH3 0x329 JUMPI PUSH1 0x2 SLOAD DUP2 DUP2 ADD DUP1 SWAP2 GT PUSH3 0x314 JUMPI PUSH32 0xDDF252AD1BE2C89B69C2B068FC378DAA952BA7F163C4A11628F55A4DF523B3EF DUP9 DUP8 SWAP4 PUSH1 0x0 SWAP4 PUSH1 0x2 SSTORE DUP5 DUP5 MSTORE DUP4 DUP3 MSTORE DUP13 DUP5 KECCAK256 DUP2 DUP2 SLOAD ADD SWAP1 SSTORE DUP13 MLOAD SWAP1 DUP2 MSTORE LOG3 DUP7 PUSH1 0x80 MSTORE DUP5 PUSH1 0x0 SWAP1 JUMPDEST PUSH3 0x2BD JUMPI JUMPDEST DUP9 PUSH3 0x29F DUP10 DUP10 DUP10 DUP10 PUSH1 0x0 MSTORE PUSH1 0x6 DUP3 MSTORE PUSH1 0x7 DUP6 PUSH1 0x0 KECCAK256 SWAP3 PUSH1 0xFF NOT SWAP4 DUP4 DUP6 DUP3 SLOAD AND OR SWAP1 SSTORE ADDRESS PUSH1 0x0 MSTORE DUP7 PUSH1 0x0 KECCAK256 DUP4 DUP6 DUP3 SLOAD AND OR SWAP1 SSTORE PUSH20 0xD99D1C33F9FC3444F8101754ABC46C52416550D1 PUSH1 0x0 MSTORE MSTORE DUP5 PUSH1 0x0 KECCAK256 DUP2 DUP4 DUP3 SLOAD AND OR SWAP1 SSTORE PUSH20 0x6725F303B657A9451D8BA641348B6761A6CC7A17 PUSH1 0x0 MSTORE DUP5 PUSH1 0x0 KECCAK256 SWAP2 DUP3 SLOAD AND OR SWAP1 SSTORE PUSH3 0x5FC JUMP JUMPDEST MLOAD PUSH2 0xE05 SWAP1 DUP2 PUSH3 0x646 DUP3 CODECOPY PUSH1 0x80 MLOAD DUP2 DUP2 DUP2 PUSH2 0x849 ADD MSTORE PUSH2 0xD17 ADD MSTORE RETURN JUMPDEST DUP3 MLOAD DUP2 LT ISZERO PUSH3 0x30E JUMPI DUP10 DUP8 DUP3 DUP5 SHL DUP6 ADD ADD MLOAD AND PUSH1 0x0 MSTORE PUSH1 0x6 DUP8 MSTORE DUP9 PUSH1 0x0 KECCAK256 DUP7 PUSH1 0xFF NOT DUP3 SLOAD AND OR SWAP1 SSTORE PUSH1 0x0 NOT DUP2 EQ PUSH3 0x2F9 JUMPI DUP6 ADD DUP6 PUSH3 0x218 JUMP JUMPDEST PUSH1 0x11 DUP5 PUSH4 0x4E487B71 PUSH1 0xE0 SHL PUSH1 0x0 MSTORE MSTORE PUSH1 0x24 PUSH1 0x0 REVERT JUMPDEST PUSH3 0x21E JUMP JUMPDEST PUSH1 0x11 DUP6 PUSH4 0x4E487B71 PUSH1 0xE0 SHL PUSH1 0x0 MSTORE MSTORE PUSH1 0x24 PUSH1 0x0 REVERT JUMPDEST DUP9 MLOAD PUSH4 0xD92E233D PUSH1 0xE0 SHL DUP2 MSTORE DUP5 SWAP1 REVERT JUMPDEST ADD MLOAD SWAP2 POP CODESIZE DUP1 PUSH3 0x191 JUMP JUMPDEST SWAP2 SWAP1 DUP9 SWAP5 POP PUSH1 0x1F NOT DUP5 AND SWAP3 DUP8 PUSH1 0x0 MSTORE DUP11 PUSH1 0x0 KECCAK256 SWAP4 PUSH1 0x0 JUMPDEST DUP13 DUP3 DUP3 LT PUSH3 0x399 JUMPI POP POP DUP6 GT PUSH3 0x37E JUMPI JUMPDEST POP POP POP POP DUP2 SHL ADD DUP3 SSTORE PUSH3 0x1A3 JUMP JUMPDEST ADD MLOAD SWAP1 PUSH1 0xF8 DUP5 PUSH1 0x0 NOT SWAP3 SHL AND SHR NOT AND SWAP1 SSTORE CODESIZE DUP1 DUP1 DUP1 PUSH3 0x36F JUMP JUMPDEST DUP4 DUP6 ADD MLOAD DUP8 SSTORE DUP13 SWAP9 SWAP1 SWAP7 ADD SWAP6 SWAP4 DUP5 ADD SWAP4 ADD PUSH3 0x35C JUMP JUMPDEST SWAP1 SWAP2 SWAP3 SWAP4 POP DUP7 PUSH1 0x0 MSTORE DUP10 PUSH1 0x0 KECCAK256 DUP14 DUP5 DUP1 DUP9 ADD DUP3 SHR DUP4 ADD SWAP4 DUP14 DUP10 LT PUSH3 0x401 JUMPI JUMPDEST SWAP2 DUP9 SWAP8 SWAP7 DUP14 SWAP4 SWAP7 SWAP6 SWAP5 SWAP3 SWAP7 ADD SWAP1 SHR ADD SWAP2 JUMPDEST DUP3 DUP2 LT PUSH3 0x3F1 JUMPI POP POP PUSH3 0x17B JUMP JUMPDEST PUSH1 0x0 DUP2 SSTORE DUP8 SWAP7 POP DUP12 SWAP2 ADD PUSH3 0x3E1 JUMP JUMPDEST SWAP4 POP DUP3 SWAP4 PUSH3 0x3D0 JUMP JUMPDEST PUSH1 0x22 DUP8 PUSH4 0x4E487B71 PUSH1 0xE0 SHL PUSH1 0x0 MSTORE MSTORE PUSH1 0x24 PUSH1 0x0 REVERT JUMPDEST SWAP1 PUSH1 0x7F AND SWAP1 PUSH3 0x164 JUMP JUMPDEST PUSH4 0x4E487B71 PUSH1 0xE0 SHL PUSH1 0x0 MSTORE PUSH1 0x41 PUSH1 0x4 MSTORE PUSH1 0x24 PUSH1 0x0 REVERT JUMPDEST ADD MLOAD SWAP1 POP CODESIZE DUP1 PUSH3 0x135 JUMP JUMPDEST PUSH1 0x0 DUP7 DUP2 MSTORE DUP13 DUP2 KECCAK256 DUP13 SWAP6 POP SWAP3 SWAP2 SWAP1 PUSH1 0x1F NOT DUP6 AND SWAP1 DUP15 JUMPDEST DUP3 DUP3 LT PUSH3 0x49C JUMPI POP POP DUP5 GT PUSH3 0x483 JUMPI JUMPDEST POP POP POP DUP2 SHL ADD DUP3 SSTORE PUSH3 0x147 JUMP JUMPDEST ADD MLOAD PUSH1 0x0 NOT DUP4 DUP8 SHL PUSH1 0xF8 AND SHR NOT AND SWAP1 SSTORE CODESIZE DUP1 DUP1 PUSH3 0x475 JUMP JUMPDEST DUP4 DUP6 ADD MLOAD DUP7 SSTORE DUP15 SWAP8 SWAP1 SWAP6 ADD SWAP5 SWAP4 DUP5 ADD SWAP4 ADD DUP15 PUSH3 0x463 JUMP JUMPDEST SWAP1 SWAP2 SWAP3 SWAP4 POP DUP7 PUSH1 0x0 MSTORE DUP6 DUP4 PUSH1 0x0 KECCAK256 SWAP3 DUP2 DUP8 ADD DUP4 SHR DUP5 ADD SWAP5 DUP8 LT PUSH3 0x504 JUMPI JUMPDEST SWAP2 DUP7 SWAP6 SWAP5 SWAP4 SWAP2 DUP15 SWAP4 ADD SWAP1 SHR ADD SWAP2 JUMPDEST DUP3 DUP2 LT PUSH3 0x4F4 JUMPI POP DUP16 DUP14 SWAP3 POP PUSH3 0x11C JUMP JUMPDEST PUSH1 0x0 DUP2 SSTORE DUP6 SWAP5 POP DUP13 SWAP2 ADD PUSH3 0x4E1 JUMP JUMPDEST SWAP4 POP DUP3 SWAP4 PUSH3 0x4D3 JUMP JUMPDEST PUSH4 0x4E487B71 PUSH1 0xE0 SHL PUSH1 0x0 MSTORE PUSH1 0x22 PUSH1 0x4 MSTORE PUSH1 0x24 PUSH1 0x0 REVERT JUMPDEST SWAP2 PUSH1 0x7F AND SWAP2 PUSH3 0x106 JUMP JUMPDEST DUP2 SWAP1 PUSH3 0x53C DUP5 PUSH3 0x5E7 JUMP JUMPDEST DUP2 MSTORE ADD SWAP2 ADD SWAP1 DUP10 SWAP1 PUSH3 0xCA JUMP JUMPDEST PUSH1 0x0 DUP1 REVERT JUMPDEST PUSH1 0x40 MLOAD SWAP2 SWAP1 PUSH1 0x1F ADD PUSH1 0x1F NOT AND DUP3 ADD PUSH1 0x1 PUSH1 0x1 PUSH1 0x40 SHL SUB DUP2 GT DUP4 DUP3 LT OR PUSH3 0x42B JUMPI PUSH1 0x40 MSTORE JUMP JUMPDEST SWAP2 SWAP1 DUP1 PUSH1 0x1F DUP5 ADD SLT ISZERO PUSH3 0x54A JUMPI DUP3 MLOAD PUSH1 0x1 PUSH1 0x1 PUSH1 0x40 SHL SUB DUP2 GT PUSH3 0x42B JUMPI PUSH1 0x20 SWAP1 PUSH3 0x5AB PUSH1 0x1F DUP3 ADD PUSH1 0x1F NOT AND DUP4 ADD PUSH3 0x54F JUMP JUMPDEST SWAP3 DUP2 DUP5 MSTORE DUP3 DUP3 DUP8 ADD ADD GT PUSH3 0x54A JUMPI PUSH1 0x0 JUMPDEST DUP2 DUP2 LT PUSH3 0x5D3 JUMPI POP DUP3 PUSH1 0x0 SWAP4 SWAP5 SWAP6 POP ADD ADD MSTORE SWAP1 JUMP JUMPDEST DUP6 DUP2 ADD DUP4 ADD MLOAD DUP5 DUP3 ADD DUP5 ADD MSTORE DUP3 ADD PUSH3 0x5BD JUMP JUMPDEST MLOAD SWAP1 PUSH1 0x1 PUSH1 0x1 PUSH1 0xA0 SHL SUB DUP3 AND DUP3 SUB PUSH3 0x54A JUMPI JUMP JUMPDEST PUSH1 0x5 DUP1 SLOAD PUSH1 0x1 PUSH1 0x1 PUSH1 0xA0 SHL SUB SWAP3 DUP4 AND PUSH1 0x1 PUSH1 0x1 PUSH1 0xA0 SHL SUB NOT DUP3 AND DUP2 OR SWAP1 SWAP3 SSTORE SWAP1 SWAP2 AND PUSH32 0x8BE0079C531659141344CD1FD0A4F28419497F9722A3DAAFE3B4186F6B6457E0 PUSH1 0x0 DUP1 LOG3 JUMP INVALID PUSH1 0x80 PUSH1 0x40 DUP2 DUP2 MSTORE PUSH1 0x4 SWAP2 DUP3 CALLDATASIZE LT ISZERO PUSH2 0x16 JUMPI PUSH1 0x0 DUP1 REVERT JUMPDEST PUSH1 0x0 SWAP3 DUP4 CALLDATALOAD PUSH1 0xE0 SHR SWAP2 DUP3 PUSH4 0x2D05D3F EQ PUSH2 0x835 JUMPI POP DUP2 PUSH4 0x6FDDE03 EQ PUSH2 0x75B JUMPI DUP2 PUSH4 0x95EA7B3 EQ PUSH2 0x731 JUMPI DUP2 PUSH4 0x18160DDD EQ PUSH2 0x712 JUMPI DUP2 PUSH4 0x23B872DD EQ PUSH2 0x648 JUMPI DUP2 PUSH4 0x313CE567 EQ PUSH2 0x62C JUMPI DUP2 PUSH4 0x39509351 EQ PUSH2 0x5C5 JUMPI DUP2 PUSH4 0x54AD8AEE EQ PUSH2 0x5A8 JUMPI DUP2 PUSH4 0x596DF805 EQ PUSH2 0x56A JUMPI DUP2 PUSH4 0x70A08231 EQ PUSH2 0x533 JUMPI DUP2 PUSH4 0x715018A6 EQ PUSH2 0x4D6 JUMPI DUP2 PUSH4 0x8DA5CB5B EQ PUSH2 0x4AD JUMPI DUP2 PUSH4 0x95D89B41 EQ PUSH2 0x38E JUMPI DUP2 PUSH4 0x9B19251A EQ PUSH2 0x350 JUMPI DUP2 PUSH4 0xA01C3483 EQ PUSH2 0x333 JUMPI DUP2 PUSH4 0xA457C2D7 EQ PUSH2 0x28B JUMPI DUP2 PUSH4 0xA9059CBB EQ PUSH2 0x25A JUMPI DUP2 PUSH4 0xDD62ED3E EQ PUSH2 0x211 JUMPI DUP2 PUSH4 0xF2FDE38B EQ PUSH2 0x141 JUMPI POP PUSH4 0xFE575A87 EQ PUSH2 0x101 JUMPI PUSH1 0x0 DUP1 REVERT JUMPDEST CALLVALUE PUSH2 0x13D JUMPI PUSH1 0x20 CALLDATASIZE PUSH1 0x3 NOT ADD SLT PUSH2 0x13D JUMPI PUSH1 0x20 SWAP2 PUSH1 0xFF SWAP1 DUP3 SWAP1 PUSH1 0x1 PUSH1 0x1 PUSH1 0xA0 SHL SUB PUSH2 0x12A PUSH2 0x8C1 JUMP JUMPDEST AND DUP2 MSTORE PUSH1 0x8 DUP6 MSTORE KECCAK256 SLOAD AND SWAP1 MLOAD SWAP1 ISZERO ISZERO DUP2 MSTORE RETURN JUMPDEST POP DUP1 REVERT JUMPDEST SWAP1 POP CALLVALUE PUSH2 0x20D JUMPI PUSH1 0x20 CALLDATASIZE PUSH1 0x3 NOT ADD SLT PUSH2 0x20D JUMPI PUSH2 0x15C PUSH2 0x8C1 JUMP JUMPDEST SWAP1 PUSH2 0x165 PUSH2 0x8F2 JUMP JUMPDEST PUSH1 0x1 PUSH1 0x1 PUSH1 0xA0 SHL SUB SWAP2 DUP3 AND SWAP3 DUP4 ISZERO PUSH2 0x1BB JUMPI POP POP PUSH1 0x5 SLOAD DUP3 PUSH12 0xFFFFFFFFFFFFFFFFFFFFFFFF PUSH1 0xA0 SHL DUP3 AND OR PUSH1 0x5 SSTORE AND PUSH32 0x8BE0079C531659141344CD1FD0A4F28419497F9722A3DAAFE3B4186F6B6457E0 DUP4 DUP1 LOG3 DUP1 RETURN JUMPDEST SWAP1 PUSH1 0x20 PUSH1 0x84 SWAP3 MLOAD SWAP2 PUSH3 0x461BCD PUSH1 0xE5 SHL DUP4 MSTORE DUP3 ADD MSTORE PUSH1 0x26 PUSH1 0x24 DUP3 ADD MSTORE PUSH32 0x4F776E61626C653A206E6577206F776E657220697320746865207A65726F2061 PUSH1 0x44 DUP3 ADD MSTORE PUSH6 0x646472657373 PUSH1 0xD0 SHL PUSH1 0x64 DUP3 ADD MSTORE REVERT JUMPDEST DUP3 DUP1 REVERT JUMPDEST POP POP CALLVALUE PUSH2 0x13D JUMPI DUP1 PUSH1 0x3 NOT CALLDATASIZE ADD SLT PUSH2 0x13D JUMPI DUP1 PUSH1 0x20 SWAP3 PUSH2 0x22F PUSH2 0x8C1 JUMP JUMPDEST PUSH2 0x237 PUSH2 0x8DC JUMP JUMPDEST PUSH1 0x1 PUSH1 0x1 PUSH1 0xA0 SHL SUB SWAP2 DUP3 AND DUP4 MSTORE PUSH1 0x1 DUP7 MSTORE DUP4 DUP4 KECCAK256 SWAP2 AND DUP3 MSTORE DUP5 MSTORE KECCAK256 SLOAD SWAP1 MLOAD SWAP1 DUP2 MSTORE RETURN JUMPDEST POP POP CALLVALUE PUSH2 0x13D JUMPI DUP1 PUSH1 0x3 NOT CALLDATASIZE ADD SLT PUSH2 0x13D JUMPI PUSH1 0x20 SWAP1 PUSH2 0x284 PUSH2 0x27A PUSH2 0x8C1 JUMP JUMPDEST PUSH1 0x24 CALLDATALOAD SWAP1 CALLER PUSH2 0xA4C JUMP JUMPDEST MLOAD PUSH1 0x1 DUP2 MSTORE RETURN JUMPDEST SWAP1 POP DUP3 CALLVALUE PUSH2 0x330 JUMPI DUP3 PUSH1 0x3 NOT CALLDATASIZE ADD SLT PUSH2 0x330 JUMPI PUSH2 0x2A6 PUSH2 0x8C1 JUMP JUMPDEST SWAP2 DUP4 PUSH1 0x24 CALLDATALOAD SWAP3 CALLER DUP2 MSTORE PUSH1 0x1 PUSH1 0x20 MSTORE DUP2 DUP2 KECCAK256 PUSH1 0x1 DUP1 PUSH1 0xA0 SHL SUB DUP7 AND DUP3 MSTORE PUSH1 0x20 MSTORE KECCAK256 SLOAD SWAP1 DUP3 DUP3 LT PUSH2 0x2DF JUMPI PUSH1 0x20 DUP6 PUSH2 0x284 DUP6 DUP6 SUB DUP8 CALLER PUSH2 0x94A JUMP JUMPDEST PUSH1 0x84 SWAP1 PUSH1 0x20 DUP7 MLOAD SWAP2 PUSH3 0x461BCD PUSH1 0xE5 SHL DUP4 MSTORE DUP3 ADD MSTORE PUSH1 0x25 PUSH1 0x24 DUP3 ADD MSTORE PUSH32 0x45524332303A2064656372656173656420616C6C6F77616E63652062656C6F77 PUSH1 0x44 DUP3 ADD MSTORE PUSH5 0x207A65726F PUSH1 0xD8 SHL PUSH1 0x64 DUP3 ADD MSTORE REVERT JUMPDEST DUP1 REVERT JUMPDEST POP POP CALLVALUE PUSH2 0x13D JUMPI DUP2 PUSH1 0x3 NOT CALLDATASIZE ADD SLT PUSH2 0x13D JUMPI PUSH1 0x20 SWAP1 MLOAD PUSH2 0xDEAD DUP2 MSTORE RETURN JUMPDEST POP POP CALLVALUE PUSH2 0x13D JUMPI PUSH1 0x20 CALLDATASIZE PUSH1 0x3 NOT ADD SLT PUSH2 0x13D JUMPI PUSH1 0x20 SWAP2 PUSH1 0xFF SWAP1 DUP3 SWAP1 PUSH1 0x1 PUSH1 0x1 PUSH1 0xA0 SHL SUB PUSH2 0x37B PUSH2 0x8C1 JUMP JUMPDEST AND DUP2 MSTORE PUSH1 0x6 DUP6 MSTORE KECCAK256 SLOAD AND SWAP1 MLOAD SWAP1 ISZERO ISZERO DUP2 MSTORE RETURN JUMPDEST DUP4 DUP4 CALLVALUE PUSH2 0x13D JUMPI DUP2 PUSH1 0x3 NOT CALLDATASIZE ADD SLT PUSH2 0x13D JUMPI DUP1 MLOAD SWAP1 DUP3 DUP5 SLOAD PUSH1 0x1 DUP2 DUP2 SHR SWAP1 DUP1 DUP4 AND SWAP3 DUP4 ISZERO PUSH2 0x4A3 JUMPI JUMPDEST PUSH1 0x20 SWAP4 DUP5 DUP5 LT DUP2 EQ PUSH2 0x490 JUMPI DUP4 DUP9 MSTORE SWAP1 DUP2 ISZERO PUSH2 0x474 JUMPI POP PUSH1 0x1 EQ PUSH2 0x41F JUMPI JUMPDEST POP POP POP DUP3 SWAP1 SUB PUSH1 0x1F ADD PUSH1 0x1F NOT AND DUP3 ADD SWAP3 PUSH8 0xFFFFFFFFFFFFFFFF DUP5 GT DUP4 DUP6 LT OR PUSH2 0x40C JUMPI POP DUP3 SWAP2 DUP3 PUSH2 0x408 SWAP3 MSTORE DUP3 PUSH2 0x878 JUMP JUMPDEST SUB SWAP1 RETURN JUMPDEST PUSH4 0x4E487B71 PUSH1 0xE0 SHL DUP2 MSTORE PUSH1 0x41 DUP6 MSTORE PUSH1 0x24 SWAP1 REVERT JUMPDEST DUP8 DUP8 MSTORE SWAP2 SWAP3 POP DUP6 SWAP2 DUP4 PUSH32 0x8A35ACFBC15FF81A39AE7D344FD709F28E8600B4AA8C65C6B64BFE7FE36BD19B JUMPDEST DUP4 DUP6 LT PUSH2 0x460 JUMPI POP POP POP POP DUP4 ADD ADD DUP6 DUP1 DUP1 PUSH2 0x3D6 JUMP JUMPDEST DUP1 SLOAD DUP9 DUP7 ADD DUP4 ADD MSTORE SWAP4 ADD SWAP3 DUP5 SWAP1 DUP3 ADD PUSH2 0x44A JUMP JUMPDEST PUSH1 0xFF NOT AND DUP8 DUP6 ADD MSTORE POP POP ISZERO ISZERO PUSH1 0x5 SHL DUP5 ADD ADD SWAP1 POP DUP6 DUP1 DUP1 PUSH2 0x3D6 JUMP JUMPDEST PUSH4 0x4E487B71 PUSH1 0xE0 SHL DUP10 MSTORE PUSH1 0x22 DUP11 MSTORE PUSH1 0x24 DUP10 REVERT JUMPDEST SWAP2 PUSH1 0x7F AND SWAP2 PUSH2 0x3B7 JUMP JUMPDEST POP POP CALLVALUE PUSH2 0x13D JUMPI DUP2 PUSH1 0x3 NOT CALLDATASIZE ADD SLT PUSH2 0x13D JUMPI PUSH1 0x5 SLOAD SWAP1 MLOAD PUSH1 0x1 PUSH1 0x1 PUSH1 0xA0 SHL SUB SWAP1 SWAP2 AND DUP2 MSTORE PUSH1 0x20 SWAP1 RETURN JUMPDEST DUP4 CALLVALUE PUSH2 0x330 JUMPI DUP1 PUSH1 0x3 NOT CALLDATASIZE ADD SLT PUSH2 0x330 JUMPI PUSH2 0x4EF PUSH2 0x8F2 JUMP JUMPDEST PUSH1 0x5 DUP1 SLOAD PUSH1 0x1 PUSH1 0x1 PUSH1 0xA0 SHL SUB NOT DUP2 AND SWAP1 SWAP2 SSTORE DUP2 SWAP1 PUSH1 0x1 PUSH1 0x1 PUSH1 0xA0 SHL SUB AND PUSH32 0x8BE0079C531659141344CD1FD0A4F28419497F9722A3DAAFE3B4186F6B6457E0 DUP3 DUP1 LOG3 DUP1 RETURN JUMPDEST POP POP CALLVALUE PUSH2 0x13D JUMPI PUSH1 0x20 CALLDATASIZE PUSH1 0x3 NOT ADD SLT PUSH2 0x13D JUMPI PUSH1 0x20 SWAP2 DUP2 SWAP1 PUSH1 0x1 PUSH1 0x1 PUSH1 0xA0 SHL SUB PUSH2 0x55B PUSH2 0x8C1 JUMP JUMPDEST AND DUP2 MSTORE DUP1 DUP5 MSTORE KECCAK256 SLOAD SWAP1 MLOAD SWAP1 DUP2 MSTORE RETURN JUMPDEST POP POP CALLVALUE PUSH2 0x13D JUMPI PUSH1 0x20 CALLDATASIZE PUSH1 0x3 NOT ADD SLT PUSH2 0x13D JUMPI PUSH1 0x20 SWAP2 PUSH1 0xFF SWAP1 DUP3 SWAP1 PUSH1 0x1 PUSH1 0x1 PUSH1 0xA0 SHL SUB PUSH2 0x595 PUSH2 0x8C1 JUMP JUMPDEST AND DUP2 MSTORE PUSH1 0x7 DUP6 MSTORE KECCAK256 SLOAD AND SWAP1 MLOAD SWAP1 ISZERO ISZERO DUP2 MSTORE RETURN JUMPDEST POP POP CALLVALUE PUSH2 0x13D JUMPI DUP2 PUSH1 0x3 NOT CALLDATASIZE ADD SLT PUSH2 0x13D JUMPI PUSH1 0x20 SWAP1 MLOAD PUSH2 0x3E8 DUP2 MSTORE RETURN JUMPDEST DUP3 DUP5 CALLVALUE PUSH2 0x330 JUMPI DUP2 PUSH1 0x3 NOT CALLDATASIZE ADD SLT PUSH2 0x330 JUMPI PUSH2 0x5DF PUSH2 0x8C1 JUMP JUMPDEST CALLER DUP3 MSTORE PUSH1 0x1 PUSH1 0x20 SWAP1 DUP2 MSTORE DUP4 DUP4 KECCAK256 PUSH1 0x1 PUSH1 0x1 PUSH1 0xA0 SHL SUB DUP4 AND DUP5 MSTORE SWAP1 MSTORE DUP3 DUP3 KECCAK256 SLOAD PUSH1 0x24 CALLDATALOAD DUP2 ADD SWAP3 SWAP1 DUP4 LT PUSH2 0x619 JUMPI PUSH1 0x20 DUP5 PUSH2 0x284 DUP6 DUP6 CALLER PUSH2 0x94A JUMP JUMPDEST PUSH4 0x4E487B71 PUSH1 0xE0 SHL DUP2 MSTORE PUSH1 0x11 DUP6 MSTORE PUSH1 0x24 SWAP1 REVERT JUMPDEST POP POP CALLVALUE PUSH2 0x13D JUMPI DUP2 PUSH1 0x3 NOT CALLDATASIZE ADD SLT PUSH2 0x13D JUMPI PUSH1 0x20 SWAP1 MLOAD PUSH1 0x12 DUP2 MSTORE RETURN JUMPDEST DUP4 SWAP2 POP CALLVALUE PUSH2 0x13D JUMPI PUSH1 0x60 CALLDATASIZE PUSH1 0x3 NOT ADD SLT PUSH2 0x13D JUMPI PUSH2 0x664 PUSH2 0x8C1 JUMP JUMPDEST PUSH2 0x66C PUSH2 0x8DC JUMP JUMPDEST SWAP2 DUP5 PUSH1 0x44 CALLDATALOAD SWAP5 PUSH1 0x1 DUP1 PUSH1 0xA0 SHL SUB DUP5 AND DUP2 MSTORE PUSH1 0x1 PUSH1 0x20 MSTORE DUP2 DUP2 KECCAK256 CALLER DUP3 MSTORE PUSH1 0x20 MSTORE KECCAK256 SLOAD SWAP1 PUSH1 0x0 NOT DUP3 SUB PUSH2 0x6A6 JUMPI JUMPDEST PUSH1 0x20 DUP7 PUSH2 0x284 DUP8 DUP8 DUP8 PUSH2 0xA4C JUMP JUMPDEST DUP5 DUP3 LT PUSH2 0x6CF JUMPI POP SWAP2 DUP4 SWAP2 PUSH2 0x6C4 PUSH1 0x20 SWAP7 SWAP6 PUSH2 0x284 SWAP6 SUB CALLER DUP4 PUSH2 0x94A JUMP JUMPDEST SWAP2 SWAP4 SWAP5 DUP2 SWAP4 POP PUSH2 0x698 JUMP JUMPDEST PUSH1 0x64 SWAP1 PUSH1 0x20 DUP8 MLOAD SWAP2 PUSH3 0x461BCD PUSH1 0xE5 SHL DUP4 MSTORE DUP3 ADD MSTORE PUSH1 0x1D PUSH1 0x24 DUP3 ADD MSTORE PUSH32 0x45524332303A20696E73756666696369656E7420616C6C6F77616E6365000000 PUSH1 0x44 DUP3 ADD MSTORE REVERT JUMPDEST POP POP CALLVALUE PUSH2 0x13D JUMPI DUP2 PUSH1 0x3 NOT CALLDATASIZE ADD SLT PUSH2 0x13D JUMPI PUSH1 0x20 SWAP1 PUSH1 0x2 SLOAD SWAP1 MLOAD SWAP1 DUP2 MSTORE RETURN JUMPDEST POP POP CALLVALUE PUSH2 0x13D JUMPI DUP1 PUSH1 0x3 NOT CALLDATASIZE ADD SLT PUSH2 0x13D JUMPI PUSH1 0x20 SWAP1 PUSH2 0x284 PUSH2 0x751 PUSH2 0x8C1 JUMP JUMPDEST PUSH1 0x24 CALLDATALOAD SWAP1 CALLER PUSH2 0x94A JUMP JUMPDEST DUP4 DUP4 CALLVALUE PUSH2 0x13D JUMPI DUP2 PUSH1 0x3 NOT CALLDATASIZE ADD SLT PUSH2 0x13D JUMPI DUP1 MLOAD SWAP1 DUP3 PUSH1 0x3 SLOAD PUSH1 0x1 DUP2 DUP2 SHR SWAP1 DUP1 DUP4 AND SWAP3 DUP4 ISZERO PUSH2 0x82B JUMPI JUMPDEST PUSH1 0x20 SWAP4 DUP5 DUP5 LT DUP2 EQ PUSH2 0x490 JUMPI DUP4 DUP9 MSTORE SWAP1 DUP2 ISZERO PUSH2 0x474 JUMPI POP PUSH1 0x1 EQ PUSH2 0x7D5 JUMPI POP POP POP DUP3 SWAP1 SUB PUSH1 0x1F ADD PUSH1 0x1F NOT AND DUP3 ADD SWAP3 PUSH8 0xFFFFFFFFFFFFFFFF DUP5 GT DUP4 DUP6 LT OR PUSH2 0x40C JUMPI POP DUP3 SWAP2 DUP3 PUSH2 0x408 SWAP3 MSTORE DUP3 PUSH2 0x878 JUMP JUMPDEST PUSH1 0x3 DUP8 MSTORE SWAP2 SWAP3 POP DUP6 SWAP2 DUP4 PUSH32 0xC2575A0E9E593C00F959F8C92F12DB2869C3395A3B0502D05E2516446F71F85B JUMPDEST DUP4 DUP6 LT PUSH2 0x817 JUMPI POP POP POP POP DUP4 ADD ADD DUP6 DUP1 DUP1 PUSH2 0x3D6 JUMP JUMPDEST DUP1 SLOAD DUP9 DUP7 ADD DUP4 ADD MSTORE SWAP4 ADD SWAP3 DUP5 SWAP1 DUP3 ADD PUSH2 0x801 JUMP JUMPDEST SWAP2 PUSH1 0x7F AND SWAP2 PUSH2 0x785 JUMP JUMPDEST DUP5 SWAP1 CALLVALUE PUSH2 0x13D JUMPI DUP2 PUSH1 0x3 NOT CALLDATASIZE ADD SLT PUSH2 0x13D JUMPI PUSH32 0x0 PUSH1 0x1 PUSH1 0x1 PUSH1 0xA0 SHL SUB AND DUP2 MSTORE PUSH1 0x20 SWAP1 RETURN JUMPDEST PUSH1 0x20 DUP1 DUP3 MSTORE DUP3 MLOAD DUP2 DUP4 ADD DUP2 SWAP1 MSTORE SWAP1 SWAP4 SWAP3 PUSH1 0x0 JUMPDEST DUP3 DUP2 LT PUSH2 0x8AD JUMPI POP POP PUSH1 0x40 SWAP3 SWAP4 POP PUSH1 0x0 DUP4 DUP3 DUP5 ADD ADD MSTORE PUSH1 0x1F DUP1 NOT SWAP2 ADD AND ADD ADD SWAP1 JUMP JUMPDEST DUP2 DUP2 ADD DUP7 ADD MLOAD DUP5 DUP3 ADD PUSH1 0x40 ADD MSTORE DUP6 ADD PUSH2 0x88B JUMP JUMPDEST PUSH1 0x4 CALLDATALOAD SWAP1 PUSH1 0x1 PUSH1 0x1 PUSH1 0xA0 SHL SUB DUP3 AND DUP3 SUB PUSH2 0x8D7 JUMPI JUMP JUMPDEST PUSH1 0x0 DUP1 REVERT JUMPDEST PUSH1 0x24 CALLDATALOAD SWAP1 PUSH1 0x1 PUSH1 0x1 PUSH1 0xA0 SHL SUB DUP3 AND DUP3 SUB PUSH2 0x8D7 JUMPI JUMP JUMPDEST PUSH1 0x5 SLOAD PUSH1 0x1 PUSH1 0x1 PUSH1 0xA0 SHL SUB AND CALLER SUB PUSH2 0x906 JUMPI JUMP JUMPDEST PUSH1 0x64 PUSH1 0x40 MLOAD PUSH3 0x461BCD PUSH1 0xE5 SHL DUP2 MSTORE PUSH1 0x20 PUSH1 0x4 DUP3 ADD MSTORE PUSH1 0x20 PUSH1 0x24 DUP3 ADD MSTORE PUSH32 0x4F776E61626C653A2063616C6C6572206973206E6F7420746865206F776E6572 PUSH1 0x44 DUP3 ADD MSTORE REVERT JUMPDEST PUSH1 0x1 PUSH1 0x1 PUSH1 0xA0 SHL SUB SWAP1 DUP2 AND SWAP2 DUP3 ISZERO PUSH2 0x9FB JUMPI AND SWAP2 DUP3 ISZERO PUSH2 0x9AB JUMPI PUSH1 0x20 PUSH32 0x8C5BE1E5EBEC7D5BD14F71427D1E84F3DD0314C0F7B2291E5B200AC8C7C3B925 SWAP2 DUP4 PUSH1 0x0 MSTORE PUSH1 0x1 DUP3 MSTORE PUSH1 0x40 PUSH1 0x0 KECCAK256 DUP6 PUSH1 0x0 MSTORE DUP3 MSTORE DUP1 PUSH1 0x40 PUSH1 0x0 KECCAK256 SSTORE PUSH1 0x40 MLOAD SWAP1 DUP2 MSTORE LOG3 JUMP JUMPDEST PUSH1 0x40 MLOAD PUSH3 0x461BCD PUSH1 0xE5 SHL DUP2 MSTORE PUSH1 0x20 PUSH1 0x4 DUP3 ADD MSTORE PUSH1 0x22 PUSH1 0x24 DUP3 ADD MSTORE PUSH32 0x45524332303A20617070726F766520746F20746865207A65726F206164647265 PUSH1 0x44 DUP3 ADD MSTORE PUSH2 0x7373 PUSH1 0xF0 SHL PUSH1 0x64 DUP3 ADD MSTORE PUSH1 0x84 SWAP1 REVERT JUMPDEST PUSH1 0x40 MLOAD PUSH3 0x461BCD PUSH1 0xE5 SHL DUP2 MSTORE PUSH1 0x20 PUSH1 0x4 DUP3 ADD MSTORE PUSH1 0x24 DUP1 DUP3 ADD MSTORE PUSH32 0x45524332303A20617070726F76652066726F6D20746865207A65726F20616464 PUSH1 0x44 DUP3 ADD MSTORE PUSH4 0x72657373 PUSH1 0xE0 SHL PUSH1 0x64 DUP3 ADD MSTORE PUSH1 0x84 SWAP1 REVERT JUMPDEST PUSH1 0x1 PUSH1 0x1 PUSH1 0xA0 SHL SUB SWAP3 SWAP1 DUP4 AND SWAP2 DUP3 ISZERO SWAP2 SWAP1 DUP3 DUP1 ISZERO PUSH2 0xDC5 JUMPI JUMPDEST PUSH2 0xDB3 JUMPI DUP2 ISZERO PUSH2 0xDA1 JUMPI PUSH1 0x0 DUP5 DUP2 MSTORE PUSH1 0x20 SWAP4 PUSH1 0x8 DUP6 MSTORE PUSH1 0x40 SWAP3 PUSH1 0xFF DUP5 DUP5 KECCAK256 SLOAD AND DUP1 ISZERO PUSH2 0xD8F JUMPI JUMPDEST PUSH2 0xD7E JUMPI DUP8 DUP2 AND SWAP8 DUP9 DUP5 MSTORE PUSH1 0x7 DUP8 MSTORE PUSH1 0xFF DUP6 DUP6 KECCAK256 SLOAD AND SWAP2 DUP3 ISZERO PUSH2 0xD56 JUMPI JUMPDEST POP DUP2 PUSH2 0xD40 JUMPI JUMPDEST DUP2 PUSH2 0xD13 JUMPI JUMPDEST POP PUSH2 0xC10 JUMPI PUSH2 0xBBE JUMPI DUP6 ISZERO PUSH2 0xB6E JUMPI DUP5 DUP2 MSTORE DUP1 DUP5 MSTORE DUP2 DUP2 KECCAK256 SLOAD DUP4 DUP2 LT PUSH2 0xB1B JUMPI SWAP2 DUP2 DUP5 PUSH32 0xDDF252AD1BE2C89B69C2B068FC378DAA952BA7F163C4A11628F55A4DF523B3EF SWAP7 SWAP6 SWAP5 DUP9 DUP5 SWAP6 MSTORE DUP3 DUP8 MSTORE SUB DUP3 DUP3 KECCAK256 SSTORE DUP8 DUP2 MSTORE KECCAK256 DUP3 DUP2 SLOAD ADD SWAP1 SSTORE MLOAD SWAP1 DUP2 MSTORE LOG3 JUMP JUMPDEST DUP3 MLOAD PUSH3 0x461BCD PUSH1 0xE5 SHL DUP2 MSTORE PUSH1 0x4 DUP2 ADD DUP7 SWAP1 MSTORE PUSH1 0x26 PUSH1 0x24 DUP3 ADD MSTORE PUSH32 0x45524332303A207472616E7366657220616D6F756E7420657863656564732062 PUSH1 0x44 DUP3 ADD MSTORE PUSH6 0x616C616E6365 PUSH1 0xD0 SHL PUSH1 0x64 DUP3 ADD MSTORE PUSH1 0x84 SWAP1 REVERT JUMPDEST DUP2 MLOAD PUSH3 0x461BCD PUSH1 0xE5 SHL DUP2 MSTORE PUSH1 0x4 DUP2 ADD DUP6 SWAP1 MSTORE PUSH1 0x23 PUSH1 0x24 DUP3 ADD MSTORE PUSH32 0x45524332303A207472616E7366657220746F20746865207A65726F2061646472 PUSH1 0x44 DUP3 ADD MSTORE PUSH3 0x657373 PUSH1 0xE8 SHL PUSH1 0x64 DUP3 ADD MSTORE PUSH1 0x84 SWAP1 REVERT JUMPDEST DUP2 MLOAD PUSH3 0x461BCD PUSH1 0xE5 SHL DUP2 MSTORE PUSH1 0x4 DUP2 ADD DUP6 SWAP1 MSTORE PUSH1 0x25 PUSH1 0x24 DUP3 ADD MSTORE PUSH32 0x45524332303A207472616E736665722066726F6D20746865207A65726F206164 PUSH1 0x44 DUP3 ADD MSTORE PUSH5 0x6472657373 PUSH1 0xD8 SHL PUSH1 0x64 DUP3 ADD MSTORE PUSH1 0x84 SWAP1 REVERT JUMPDEST SWAP1 SWAP6 POP PUSH2 0xCC2 JUMPI DUP4 DUP6 MSTORE DUP5 DUP4 MSTORE DUP1 DUP6 KECCAK256 SLOAD DUP3 DUP2 LT PUSH2 0xC6F JUMPI SWAP1 DUP3 PUSH32 0xDDF252AD1BE2C89B69C2B068FC378DAA952BA7F163C4A11628F55A4DF523B3EF SWAP5 SWAP4 SWAP3 DUP7 DUP9 MSTORE DUP8 DUP6 MSTORE SUB DUP2 DUP8 KECCAK256 SSTORE DUP1 PUSH2 0xDEAD SWAP7 DUP8 DUP2 MSTORE KECCAK256 DUP3 DUP2 SLOAD ADD SWAP1 SSTORE MLOAD SWAP1 DUP2 MSTORE LOG3 JUMP JUMPDEST DUP2 MLOAD PUSH3 0x461BCD PUSH1 0xE5 SHL DUP2 MSTORE PUSH1 0x4 DUP2 ADD DUP6 SWAP1 MSTORE PUSH1 0x26 PUSH1 0x24 DUP3 ADD MSTORE PUSH32 0x45524332303A207472616E7366657220616D6F756E7420657863656564732062 PUSH1 0x44 DUP3 ADD MSTORE PUSH6 0x616C616E6365 PUSH1 0xD0 SHL PUSH1 0x64 DUP3 ADD MSTORE PUSH1 0x84 SWAP1 REVERT JUMPDEST MLOAD PUSH3 0x461BCD PUSH1 0xE5 SHL DUP2 MSTORE PUSH1 0x4 DUP2 ADD DUP4 SWAP1 MSTORE PUSH1 0x25 PUSH1 0x24 DUP3 ADD MSTORE PUSH32 0x45524332303A207472616E736665722066726F6D20746865207A65726F206164 PUSH1 0x44 DUP3 ADD MSTORE PUSH5 0x6472657373 PUSH1 0xD8 SHL PUSH1 0x64 DUP3 ADD MSTORE PUSH1 0x84 SWAP1 REVERT JUMPDEST SWAP1 POP PUSH32 0x0 AND DUP7 EQ ISZERO CODESIZE PUSH2 0xAB7 JUMP JUMPDEST DUP8 DUP5 MSTORE PUSH1 0x6 DUP8 MSTORE DUP5 DUP5 KECCAK256 SLOAD PUSH1 0xFF AND ISZERO SWAP2 POP PUSH2 0xAB1 JUMP JUMPDEST SWAP1 SWAP2 POP DUP8 DUP5 MSTORE PUSH1 0xFF DUP6 DUP6 KECCAK256 SLOAD AND ISZERO SWAP1 DUP2 PUSH2 0xD73 JUMPI JUMPDEST POP SWAP1 CODESIZE PUSH2 0xAAA JUMP JUMPDEST SWAP1 POP EXTCODESIZE ISZERO ISZERO CODESIZE PUSH2 0xD6B JUMP JUMPDEST DUP4 MLOAD PUSH4 0x9550C77 PUSH1 0xE0 SHL DUP2 MSTORE PUSH1 0x4 SWAP1 REVERT JUMPDEST POP DUP8 DUP2 AND DUP4 MSTORE PUSH1 0xFF DUP5 DUP5 KECCAK256 SLOAD AND PUSH2 0xA8C JUMP JUMPDEST PUSH1 0x40 MLOAD PUSH4 0x162908E3 PUSH1 0xE1 SHL DUP2 MSTORE PUSH1 0x4 SWAP1 REVERT JUMPDEST PUSH1 0x40 MLOAD PUSH4 0xD92E233D PUSH1 0xE0 SHL DUP2 MSTORE PUSH1 0x4 SWAP1 REVERT JUMPDEST POP DUP5 DUP2 AND ISZERO PUSH2 0xA65 JUMP INVALID LOG2 PUSH5 0x6970667358 0x22 SLT KECCAK256 PUSH11 0xBAF380E0BB704D4A51C14D 0xA9 DELEGATECALL 0xDC 0x28 0xD 0xF 0x2E 0xB6 0xA7 0xBE 0xBA DUP3 PREVRANDAO RETURNDATASIZE 0xE9 0xD4 0xD 0xAE 0xCC CREATE2 PUSH5 0x736F6C6343 STOP ADDMOD SGT STOP CALLER "},"methodIdentifiers":{"DEAD_WALLET()":"a01c3483","SELL_TAX()":"54ad8aee","allowance(address,address)":"dd62ed3e","approve(address,uint256)":"095ea7b3","balanceOf(address)":"70a08231","creator()":"02d05d3f","decimals()":"313ce567","decreaseAllowance(address,uint256)":"a457c2d7","increaseAllowance(address,uint256)":"39509351","isBlacklisted(address)":"fe575a87","isPairOrRouter(address)":"596df805","name()":"06fdde03","owner()":"8da5cb5b","renounceOwnership()":"715018a6","symbol()":"95d89b41","totalSupply()":"18160ddd","transfer(address,uint256)":"a9059cbb","transferFrom(address,address,uint256)":"23b872dd","transferOwnership(address)":"f2fde38b","whitelist(address)":"9b19251a"}}}}}