{
  "_format": "hh-sol-artifact-1",
  "contractName": "TokenFactory",
  "sourceName": "contracts/TokenFactory.sol",
  "abi": [
    {
      "anonymous": false,
      "inputs": [
        {
          "indexed": false,
          "internalType": "uint256",
          "name": "newFee",
          "type": "uint256"
        }
      ],
      "name": "FeeUpdated",
      "type": "event"
    },
    {
      "anonymous": false,
      "inputs": [
        {
          "indexed": true,
          "internalType": "address",
          "name": "previousOwner",
          "type": "address"
        },
        {
          "indexed": true,
          "internalType": "address",
          "name": "newOwner",
          "type": "address"
        }
      ],
      "name": "OwnershipTransferred",
      "type": "event"
    },
    {
      "anonymous": false,
      "inputs": [
        {
          "indexed": true,
          "internalType": "address",
          "name": "token",
          "type": "address"
        },
        {
          "indexed": true,
          "internalType": "address",
          "name": "creator",
          "type": "address"
        }
      ],
      "name": "TokenCreated",
      "type": "event"
    },
    {
      "inputs": [
        {
          "components": [
            {
              "internalType": "string",
              "name": "name",
              "type": "string"
            },
            {
              "internalType": "string",
              "name": "symbol",
              "type": "string"
            },
            {
              "internalType": "uint256",
              "name": "totalSupply",
              "type": "uint256"
            },
            {
              "internalType": "address[]",
              "name": "whitelist",
              "type": "address[]"
            }
          ],
          "internalType": "struct TokenFactory.TokenParams",
          "name": "params",
          "type": "tuple"
        }
      ],
      "name": "createToken",
      "outputs": [
        {
          "internalType": "address",
          "name": "",
          "type": "address"
        }
      ],
      "stateMutability": "payable",
      "type": "function"
    },
    {
      "inputs": [
        {
          "internalType": "address",
          "name": "",
          "type": "address"
        },
        {
          "internalType": "uint256",
          "name": "",
          "type": "uint256"
        }
      ],
      "name": "creatorTokens",
      "outputs": [
        {
          "internalType": "address",
          "name": "",
          "type": "address"
        }
      ],
      "stateMutability": "view",
      "type": "function"
    },
    {
      "inputs": [],
      "name": "fee",
      "outputs": [
        {
          "internalType": "uint256",
          "name": "",
          "type": "uint256"
        }
      ],
      "stateMutability": "view",
      "type": "function"
    },
    {
      "inputs": [
        {
          "internalType": "address",
          "name": "creator",
          "type": "address"
        }
      ],
      "name": "getCreatorTokens",
      "outputs": [
        {
          "internalType": "address[]",
          "name": "",
          "type": "address[]"
        }
      ],
      "stateMutability": "view",
      "type": "function"
    },
    {
      "inputs": [],
      "name": "owner",
      "outputs": [
        {
          "internalType": "address",
          "name": "",
          "type": "address"
        }
      ],
      "stateMutability": "view",
      "type": "function"
    },
    {
      "inputs": [],
      "name": "renounceOwnership",
      "outputs": [],
      "stateMutability": "nonpayable",
      "type": "function"
    },
    {
      "inputs": [
        {
          "internalType": "uint256",
          "name": "_fee",
          "type": "uint256"
        }
      ],
      "name": "setFee",
      "outputs": [],
      "stateMutability": "nonpayable",
      "type": "function"
    },
    {
      "inputs": [
        {
          "internalType": "address",
          "name": "newOwner",
          "type": "address"
        }
      ],
      "name": "transferOwnership",
      "outputs": [],
      "stateMutability": "nonpayable",
      "type": "function"
    },
    {
      "inputs": [],
      "name": "withdraw",
      "outputs": [],
      "stateMutability": "nonpayable",
      "type": "function"
    }
  ],
  "bytecode": "0x608080604052346100665760008054336001600160a01b0319821681178355916001600160a01b03909116907f8be0079c531659141344cd1fd0a4f28419497f9722a3daafe3b4186f6b6457e09080a366038d7ea4c68000600155611ca3908161006c8239f35b600080fdfe604060808152600490813610156200001657600080fd5b600091823560e01c80633ccfd60b146200062e57806369fe0e2d14620005dd578063715018a6146200057f57806374abfa5414620004cb5780638da5cb5b14620004a1578063d567eec214620001e2578063db3fa4cc146200017f578063ddca3f43146200015a5763f2fde38b146200008e57600080fd5b34620001565760203660031901126200015657620000ab620006aa565b90620000b6620006f5565b6001600160a01b039182169283156200010457505082546001600160a01b0319811683178455167f8be0079c531659141344cd1fd0a4f28419497f9722a3daafe3b4186f6b6457e08380a380f35b906020608492519162461bcd60e51b8352820152602660248201527f4f776e61626c653a206e6577206f776e657220697320746865207a65726f206160448201526564647265737360d01b6064820152fd5b8280fd5b5050346200017b57816003193601126200017b576020906001549051908152f35b5080fd5b5050346200017b57806003193601126200017b576200019d620006aa565b6001600160a01b039081168352600260205281832080546024359490851015620001df5750602093620001d091620006c6565b92905490519260031b1c168152f35b80fd5b5082906020926003199184833601126200049d5780359267ffffffffffffffff808511620004995784830191608086360391820112620004955760019586548034106200045f57803411620003ef575b509083929162000247846200025596620007cb565b9590946024830190620007cb565b9260648301359060221901811215620003d4578201928784013593858511620003eb57602401958460051b36038713620003eb5789519761144b808a019788118a891017620003d857938998979695938f95604494620002d894620002ca928d62000823903960a08b5260a08b019162000801565b91888303878a015262000801565b910135898501528381036060850152828152019290895b818110620003a557505050608033910152039085f09081156200039b573385526002865282852080546001600160a01b039384169590926801000000000000000084101562000388575082018155620003499190620006c6565b819291549060031b9185831b921b19161790555191817fd5f9bdf12adf29dab0248c349842c3822d53ae2bb4f36352f301630d018c8139339280a38152f35b634e487b7160e01b885260419052602487fd5b82513d86823e3d90fd5b919450919284356001600160a01b03811690819003620003d45781528594908b019392908b01918901620002ef565b8a80fd5b634e487b7160e01b8e5260418b5260248efd5b8b80fd5b34033481116200044c578880808093335af16200040b62000787565b501562000419578962000232565b855162461bcd60e51b81528086018a9052600d60248201526c1499599d5b990819985a5b1959609a1b6044820152606490fd5b634e487b7160e01b895260118652602489fd5b865162461bcd60e51b81528087018b9052601060248201526f496e73756666696369656e742066656560801b6044820152606490fd5b8680fd5b8580fd5b8380fd5b5050346200017b57816003193601126200017b57905490516001600160a01b039091168152602090f35b5050346200017b5760208060031936011262000156576001600160a01b039283620004f5620006aa565b1681526002825282812091835190818185549182815201908195855282852090855b818110620005685750505082620005309103836200074e565b8451948186019282875251809352850193925b828110620005515785850386f35b835187168552938101939281019260010162000543565b82548a168452928401926001928301920162000517565b8334620001df5780600319360112620001df576200059c620006f5565b80546001600160a01b03198116825581906001600160a01b03167f8be0079c531659141344cd1fd0a4f28419497f9722a3daafe3b4186f6b6457e08280a380f35b50346200015657602036600319011262000156577f8c4d35e54a3f2ef1134138fd8ea3daee6a3c89e10d2665996babdf70261e2c7691602091359062000622620006f5565b8160015551908152a180f35b50903462000156578260031936011262000156576200064c620006f5565b8280808060018060a01b0381541647905af16200066862000787565b501562000673578280f35b906020606492519162461bcd60e51b8352820152601160248201527015da5d1a191c985dd85b0819985a5b1959607a1b6044820152fd5b600435906001600160a01b0382168203620006c157565b600080fd5b8054821015620006df5760005260206000200190600090565b634e487b7160e01b600052603260045260246000fd5b6000546001600160a01b031633036200070a57565b606460405162461bcd60e51b815260206004820152602060248201527f4f776e61626c653a2063616c6c6572206973206e6f7420746865206f776e65726044820152fd5b90601f8019910116810190811067ffffffffffffffff8211176200077157604052565b634e487b7160e01b600052604160045260246000fd5b3d15620007c6573d9067ffffffffffffffff8211620007715760405191620007ba601f8201601f1916602001846200074e565b82523d6000602084013e565b606090565b903590601e1981360301821215620006c1570180359067ffffffffffffffff8211620006c157602001918136038313620006c157565b908060209392818452848401376000828201840152601f01601f191601019056fe604060a08152346200054a576200144b90813803806200001f816200054f565b93843982019160a0818403126200054a5780516001600160401b0393908481116200054a57816200005291840162000575565b602091828401518681116200054a57816200006f91860162000575565b858501519160608601518881116200054a57860197601f9682888b0112156200054a578951928284116200042b5760059a848c1b908980620000b38185016200054f565b8098815201928201019283116200054a5789809101915b8383106200052f57505050506080620000e49101620005e7565b968551908282116200042b5760039182546001988982811c9216801562000524575b8b8310146200050e578a828f86869511620004b4575b5050508a908483116001146200044d5760009262000441575b505060001982851b1c191690881b1782555b84519283116200042b5760049485548881811c9116801562000420575b8a8210146200040b579081838695949311620003b0575b5089918411600114620003455760009362000339575b505082871b92600019911b1c19161782555b620001ae33620005fc565b6001600160a01b0397868916938415620003295760025481810180911162000314577fddf252ad1be2c89b69c2b068fc378daa952ba7f163c4a11628f55a4df523b3ef8887936000936002558484528382528c84208181540190558c51908152a386608052846000905b620002bd575b886200029f89898989600052600682526007856000209260ff199383858254161790553060005286600020838582541617905573d99d1c33f9fc3444f8101754abc46c52416550d160005252846000208183825416179055736725f303b657a9451d8ba641348b6761a6cc7a176000528460002091825416179055620005fc565b51610e0590816200064682396080518181816108490152610d170152f35b82518110156200030e57898782841b850101511660005260068752886000208660ff198254161790556000198114620002f95785018562000218565b601184634e487b7160e01b6000525260246000fd5b6200021e565b601185634e487b7160e01b6000525260246000fd5b885163d92e233d60e01b81528490fd5b01519150388062000191565b9190889450601f19841692876000528a6000209360005b8c8282106200039957505085116200037e575b50505050811b018255620001a3565b01519060f884600019921b161c19169055388080806200036f565b8385015187558c989096019593840193016200035c565b909192935086600052896000208d84808801821c8301938d891062000401575b918897968d93969594929601901c01915b828110620003f15750506200017b565b600081558796508b9101620003e1565b93508293620003d0565b602287634e487b7160e01b6000525260246000fd5b90607f169062000164565b634e487b7160e01b600052604160045260246000fd5b01519050388062000135565b60008681528c81208c9550929190601f198516908e5b8282106200049c575050841162000483575b505050811b01825562000147565b015160001983871b60f8161c1916905538808062000475565b8385015186558e979095019493840193018e62000463565b909192935086600052858360002092818701831c840194871062000504575b9186959493918e9301901c01915b828110620004f457508f8d92506200011c565b600081558594508c9101620004e1565b93508293620004d3565b634e487b7160e01b600052602260045260246000fd5b91607f169162000106565b81906200053c84620005e7565b8152019101908990620000ca565b600080fd5b6040519190601f01601f191682016001600160401b038111838210176200042b57604052565b919080601f840112156200054a5782516001600160401b0381116200042b57602090620005ab601f8201601f191683016200054f565b928184528282870101116200054a5760005b818110620005d357508260009394955001015290565b8581018301518482018401528201620005bd565b51906001600160a01b03821682036200054a57565b600580546001600160a01b039283166001600160a01b0319821681179092559091167f8be0079c531659141344cd1fd0a4f28419497f9722a3daafe3b4186f6b6457e0600080a356fe608060408181526004918236101561001657600080fd5b600092833560e01c91826302d05d3f146108355750816306fdde031461075b578163095ea7b31461073157816318160ddd1461071257816323b872dd14610648578163313ce5671461062c57816339509351146105c557816354ad8aee146105a8578163596df8051461056a57816370a0823114610533578163715018a6146104d65781638da5cb5b146104ad57816395d89b411461038e5781639b19251a14610350578163a01c348314610333578163a457c2d71461028b578163a9059cbb1461025a578163dd62ed3e14610211578163f2fde38b14610141575063fe575a871461010157600080fd5b3461013d57602036600319011261013d5760209160ff9082906001600160a01b0361012a6108c1565b1681526008855220541690519015158152f35b5080fd5b90503461020d57602036600319011261020d5761015c6108c1565b906101656108f2565b6001600160a01b039182169283156101bb575050600554826bffffffffffffffffffffffff60a01b821617600555167f8be0079c531659141344cd1fd0a4f28419497f9722a3daafe3b4186f6b6457e08380a380f35b906020608492519162461bcd60e51b8352820152602660248201527f4f776e61626c653a206e6577206f776e657220697320746865207a65726f206160448201526564647265737360d01b6064820152fd5b8280fd5b50503461013d578060031936011261013d578060209261022f6108c1565b6102376108dc565b6001600160a01b0391821683526001865283832091168252845220549051908152f35b50503461013d578060031936011261013d5760209061028461027a6108c1565b6024359033610a4c565b5160018152f35b905082346103305782600319360112610330576102a66108c1565b918360243592338152600160205281812060018060a01b03861682526020522054908282106102df57602085610284858503873361094a565b608490602086519162461bcd60e51b8352820152602560248201527f45524332303a2064656372656173656420616c6c6f77616e63652062656c6f77604482015264207a65726f60d81b6064820152fd5b80fd5b50503461013d578160031936011261013d576020905161dead8152f35b50503461013d57602036600319011261013d5760209160ff9082906001600160a01b0361037b6108c1565b1681526006855220541690519015158152f35b83833461013d578160031936011261013d57805190828454600181811c908083169283156104a3575b602093848410811461049057838852908115610474575060011461041f575b505050829003601f01601f191682019267ffffffffffffffff84118385101761040c5750829182610408925282610878565b0390f35b634e487b7160e01b815260418552602490fd5b8787529192508591837f8a35acfbc15ff81a39ae7d344fd709f28e8600b4aa8c65c6b64bfe7fe36bd19b5b83851061046057505050508301018580806103d6565b80548886018301529301928490820161044a565b60ff1916878501525050151560051b84010190508580806103d6565b634e487b7160e01b895260228a52602489fd5b91607f16916103b7565b50503461013d578160031936011261013d5760055490516001600160a01b039091168152602090f35b83346103305780600319360112610330576104ef6108f2565b600580546001600160a01b0319811690915581906001600160a01b03167f8be0079c531659141344cd1fd0a4f28419497f9722a3daafe3b4186f6b6457e08280a380f35b50503461013d57602036600319011261013d5760209181906001600160a01b0361055b6108c1565b16815280845220549051908152f35b50503461013d57602036600319011261013d5760209160ff9082906001600160a01b036105956108c1565b1681526007855220541690519015158152f35b50503461013d578160031936011261013d57602090516103e88152f35b8284346103305781600319360112610330576105df6108c1565b338252600160209081528383206001600160a01b03831684529052828220546024358101929083106106195760208461028485853361094a565b634e487b7160e01b815260118552602490fd5b50503461013d578160031936011261013d576020905160128152f35b8391503461013d57606036600319011261013d576106646108c1565b61066c6108dc565b91846044359460018060a01b0384168152600160205281812033825260205220549060001982036106a6575b602086610284878787610a4c565b8482106106cf57509183916106c4602096956102849503338361094a565b919394819350610698565b606490602087519162461bcd60e51b8352820152601d60248201527f45524332303a20696e73756666696369656e7420616c6c6f77616e63650000006044820152fd5b50503461013d578160031936011261013d576020906002549051908152f35b50503461013d578060031936011261013d576020906102846107516108c1565b602435903361094a565b83833461013d578160031936011261013d5780519082600354600181811c9080831692831561082b575b60209384841081146104905783885290811561047457506001146107d557505050829003601f01601f191682019267ffffffffffffffff84118385101761040c5750829182610408925282610878565b600387529192508591837fc2575a0e9e593c00f959f8c92f12db2869c3395a3b0502d05e2516446f71f85b5b83851061081757505050508301018580806103d6565b805488860183015293019284908201610801565b91607f1691610785565b84903461013d578160031936011261013d577f00000000000000000000000000000000000000000000000000000000000000006001600160a01b03168152602090f35b6020808252825181830181905290939260005b8281106108ad57505060409293506000838284010152601f8019910116010190565b81810186015184820160400152850161088b565b600435906001600160a01b03821682036108d757565b600080fd5b602435906001600160a01b03821682036108d757565b6005546001600160a01b0316330361090657565b606460405162461bcd60e51b815260206004820152602060248201527f4f776e61626c653a2063616c6c6572206973206e6f7420746865206f776e65726044820152fd5b6001600160a01b039081169182156109fb57169182156109ab5760207f8c5be1e5ebec7d5bd14f71427d1e84f3dd0314c0f7b2291e5b200ac8c7c3b925918360005260018252604060002085600052825280604060002055604051908152a3565b60405162461bcd60e51b815260206004820152602260248201527f45524332303a20617070726f766520746f20746865207a65726f206164647265604482015261737360f01b6064820152608490fd5b60405162461bcd60e51b8152602060048201526024808201527f45524332303a20617070726f76652066726f6d20746865207a65726f206164646044820152637265737360e01b6064820152608490fd5b6001600160a01b03929083169182159190828015610dc5575b610db3578115610da15760008481526020936008855260409260ff84842054168015610d8f575b610d7e57878116978884526007875260ff8585205416918215610d56575b5081610d40575b81610d13575b50610c1057610bbe578515610b6e5784815280845281812054838110610b1b579181847fddf252ad1be2c89b69c2b068fc378daa952ba7f163c4a11628f55a4df523b3ef9695948884955282875203828220558781522082815401905551908152a3565b825162461bcd60e51b815260048101869052602660248201527f45524332303a207472616e7366657220616d6f756e7420657863656564732062604482015265616c616e636560d01b6064820152608490fd5b815162461bcd60e51b815260048101859052602360248201527f45524332303a207472616e7366657220746f20746865207a65726f206164647260448201526265737360e81b6064820152608490fd5b815162461bcd60e51b815260048101859052602560248201527f45524332303a207472616e736665722066726f6d20746865207a65726f206164604482015264647265737360d81b6064820152608490fd5b909550610cc25783855284835280852054828110610c6f5790827fddf252ad1be2c89b69c2b068fc378daa952ba7f163c4a11628f55a4df523b3ef94939286885287855203818720558061dead968781522082815401905551908152a3565b815162461bcd60e51b815260048101859052602660248201527f45524332303a207472616e7366657220616d6f756e7420657863656564732062604482015265616c616e636560d01b6064820152608490fd5b5162461bcd60e51b815260048101839052602560248201527f45524332303a207472616e736665722066726f6d20746865207a65726f206164604482015264647265737360d81b6064820152608490fd5b90507f00000000000000000000000000000000000000000000000000000000000000001686141538610ab7565b878452600687528484205460ff16159150610ab1565b90915087845260ff8585205416159081610d73575b509038610aaa565b90503b151538610d6b565b83516309550c7760e01b8152600490fd5b50878116835260ff8484205416610a8c565b60405163162908e360e11b8152600490fd5b60405163d92e233d60e01b8152600490fd5b5084811615610a6556fea26469706673582212206abaf380e0bb704d4a51c14da9f4dc280d0f2eb6a7beba82443de9d40daeccf564736f6c63430008130033a2646970667358221220d1d19b9132931132e48579b9e0421d2e5b66557fcc312584d2004d5757f6e59964736f6c63430008130033",
  "linkReferences": {},
  "deployedLinkReferences": {}
}